:020000040800F2
:10000000A0050020010100084B1F00087F1D00080B
:10001000491F0008A9020008ED20000800000000A8
:100020000000000000000000000000004F1F00085A
:100030000B030008000000004D1F0008511F0008BE
:100040001B0100081B0100081B0100081B01000820
:100050001B0100081B0100081B0100081B01000810
:100060001B0100081B0100081B010008D502000845
:100070001B0100081B0100081B0100081B010008F0
:100080001B0100081B0100086D0100081B0100088E
:10009000E12000081B0100081B0100081B010008EB
:1000A0001B010008FD1F00081B0100081B010008C0
:1000B0001B0100081B0100081B0100081B010008B0
:1000C0001B0100081B0100081B0100081B010008A0
:1000D0001B0100081B0100081B0100081B01000890
:1000E0001B0100081B0100081B010008DFF80CD0F1
:1000F00000F02AF8004800472D210008A005002044
:100100000648804706480047FEE7FEE7FEE7FEE7B1
:10011000FEE7FEE7FEE7FEE7FEE7FEE7B51F0008A5
:10012000ED000008D2B201E000F8012B491EFBD21D
:1001300070470022F6E710B513460A4604461946F2
:10014000FFF7F0FF204610BD064C074D06E0E068C3
:1001500040F0010394E8070098471034AC42F6D30E
:10016000FFF7C8FF5022000870220008014800F085
:1001700050B900002000002070B504460068816876
:10018000C943C9071CD1816821F00101816001F0D8
:100190009BF805460FE000BF01F096F8401B0228CF
:1001A00009D9A06A40F01000A062E06A40F00100A6
:1001B000E062012070BD20688068C043C007EBD0BA
:1001C000002070BD10B50146406A826A12F0500FDF
:1001D00005D0006A026BBDE8104008461047816AEE
:1001E00041F40071816201688968C1F342410729C5
:1001F0000CD1017B51B9816A21F480718162816ADD
:10020000C90403D4816A41F00101816200F0FEF863
:1002100010BD10B5406A816A41F040018162C16A37
:1002200041F00401C16200F0F3F810BD10B5406A5E
:1002300000F0EDF810BD0000F8B500260446009669
:1002400000688168C943C90728D0816841F001016D
:100250008160134813490068B0FBF1F000E0401ED4
:1002600000900028FBD101F02FF8054611E000BFF7
:1002700001F02AF8401B02280BD9A06A40F01000B8
:10028000A062E06A40F00100E06284F8246001208E
:10029000F8BD20688068C043C007E9D10020F8BDE0
:1002A0001C00002040420F00FEE70000084800212B
:1002B000012201620161016041608160C261C1602F
:1002C0000E22C0E905210146803800F03FBB000046
:1002D000D0000020014800F0D9BD00001801002026
:1002E00030B590F840500124AC40C56B6C60046898
:1002F00063604368102B036803D099600068C26094
:1003000030BD9A600068C16030BD7047704770476B
:10031000F8B50024009490F824202546012A12D034
:10032000012280F824204A681F23072A0DD206687C
:10033000776B521E02EB820293409F430B689340FF
:100340001F43776319E00220F8BD06680D2A0AD220
:10035000376BD21F02EB820293409F430B6893409E
:100360001F43376309E0F76A0D3A02EB82029340BC
:100370009F430B6893401F43F7620A680723066890
:100380000A2A0AD3F7680A3A02EB420293409F43D3
:100390008B6893401F43F76008E0376902EB420225
:1003A00093409F438B6893401F4337610A68102A2C
:1003B00001D0112A20D1124B02689A4217D19368BA
:1003C0001B0219D4936843F4000393600968102951
:1003D00012D10C490C4A0968B1FBF2F101EB810121
:1003E000490000E0491E00910029FBD104E0816A28
:1003F00041F020018162012480F824502046F8BD9C
:10040000002401401C00002040420F00704770474C
:10041000704710B5044600684168890626D5016812
:10042000890723D5A16AC90603D4A16A41F40071E2
:10043000A1628168C1F34241072910D1217B71B9C2
:10044000416821F020014160A06A20F48070A06220
:10045000A06AC00403D4A06A40F00100A062204654
:10046000FFF7D4FF21686FF0120008602068416830
:1004700009062ED5016849072BD5A16AC90603D400
:10048000A16A41F40051A1628168C1F302310729D8
:1004900009D04168490515D48168C1F34241072953
:1004A00010D1217B71B9416821F080014160A06ABF
:1004B00020F48050A062A06AC00503D4A06A40F076
:1004C0000100A0622046FFF722FF21686FF00C00B8
:1004D00008602068416849060DD50068C0070AD049
:1004E000A06A40F48030A062204600F093F82168B2
:1004F0006FF00100086010BD2DE9F0414FF00007DA
:1005000004003D467ED0A06A002628B9E66284F841
:100510002460204600F080F82046FFF72DFEA16AF7
:10052000C90600D420B1A06A40F01000A06269E0C2
:10053000A16A21F4885141F00201A1626268E16977
:10054000237B0A4347EA43010A43A1684FF48077BB
:10055000B94209D0012907D05FF0000194F814C016
:10056000BCF1010F02D00AE03946F7E7F3B1A36A04
:1005700043F02003A362E36A43F00103E3622368CC
:10058000D3F804C02CF4694C4CEA010CC3F804C045
:1005900021688B68DFF870C003EA0C0313438B609B
:1005A000A168B9420BD0012909D00CE0DFF85CC08A
:1005B000A3690CEB43330B4343F40061DFE7218A6B
:1005C0000D05A5F580152168CB6A23F470032B4334
:1005D000CB62216889680E4B1940914208D1E662CE
:1005E000A16A21F0020141F00101A162BDE8F081A0
:1005F000A06A20F0020040F01000A062E06A40F023
:100600000100E0620120F1E7FDF7E1FF00E0FFFFFC
:10061000FE0E1FFF7047000070B586B0002506462D
:10062000009501950295039500681E49884236D1D0
:100630001D49886940F400708861886900F4007081
:100640000490886940F0040088618869694600F078
:1006500004000490FF20009003200190134800F054
:1006600037FD144C1248C4E900058020C4E902504B
:1006700080002061800060612020C4E906052046DA
:1006800000F0AEFC08B1FFF741FE346200221146D3
:100690001220666200F09EFE122000F08DFE06B071
:1006A00070BD00000024014000100240000801401D
:1006B000080002401801002070B5044690F824009C
:1006C00001280DD0012084F824002046FFF7B4FD56
:1006D00002004FF0000005D084F82400104670BDE1
:1006E000022070BDA16A40F20123994341F4807158
:1006F000A1621F4D23681F49AB4218D10E6816F442
:10070000702F14D0A66A46F48016A6620E6876058D
:1007100005D5A66A26F4005646F48056A662A66A57
:10072000F6040AD5E66A26F00606E66206E0A66A40
:1007300026F48016A6625E68E9E7E06284F8240089
:100740006FF00200186020688368C3F34243072BF0
:1007500005D1A84208D1096811F4702F04D081682E
:1007600041F480118160B9E7816841F4A001F9E7A3
:1007700000280140042401402DE9F0478946044641
:100780003B4900683B4F0E1D9046884201D0B8425D
:1007900007D1306810F4702F03D001252846BDE83A
:1007A000F08794F8240001280CD0012084F824005C
:1007B0002046FFF741FD05004FF0000004D084F80B
:1007C0002400EBE70220EAE7A16A40F601629143C8
:1007D00041F48071A1622168B94218D1326812F4E3
:1007E000702F14D0A16A41F48011A16231684905CB
:1007F00005D5A16A21F4005141F48051A162A16A9A
:10080000C9040AD5E16A21F00601E16206E0A26AA4
:1008100022F48012A2624968E9E7E06284F82400C9
:10082000216A15488862216A1448C862216A1448FE
:10083000086321686FF0020008602068816841F455
:1008400080718160216843464A464C31206A00F03D
:10085000F5FB20688168C1F342410729816803D014
:1008600041F48011816099E741F4A001FAE70000AA
:100870000024014000280140C50100082D020008A5
:1008800013020008F0B590F820500468A468012D08
:1008900005D0022D03D0416A41F4802153E014F0C9
:1008A000406F01D1E5004BD5C4F30164022C03D99C
:1008B000416A41F4000146E00125A5401D608D68B4
:1008C0004FF4C0739DB1CE6835434E6845EAC60506
:1008D000066803EB0417F5514FF4C275076805EB82
:1008E00004150E697E51097D012905D009E00E88A5
:1008F000CD6845EA4655EBE701684E5946F48076E7
:100900004E511179D2F805504FF4C67641EA0525CB
:10091000016806EB04168D511178D2F801204FF4CE
:10092000C47541EA0221026805EB041551510068C3
:1009300003EB0411425842F0010242500020F0BD86
:10094000416A41F4001141620120F0BD10B590F8F8
:1009500020300268012B07D0022B05D0416A41F4F8
:1009600080214162012010BDD2F8000240F0010058
:10097000C2F80002087D00F01F0301209840D2F861
:100980001C328343C2F81C32CB69B3B9D2F80C32A3
:100990008343C2F80C328C894B6864F31F434C6963
:1009A00002EBC404C4F840320C890B6864F31F43A3
:1009B0004C6902EBC404C4F84432CB69012B16D154
:1009C000D2F80C320343C2F80C320C884B6864F343
:1009D0001F434C6902EBC404C4F840320C89CB6855
:1009E00064F31F434C6902EBC404C4F844328B69BE
:1009F000002BD2F804320FD053EA0003C2F80432BD
:100A00000B69002BD2F8143208D00343C2F8143219
:100A1000096A012904D008E08343EFE78343F5E73F
:100A2000D2F81C120143C2F81C12D2F8000220F0C6
:100A30000100C2F80002002010BD704702460020ED
:100A400092F82010012901D002290CD111688A687E
:100A5000520100D501208A68120100D5401C896826
:100A6000C90000D5401C70472DE9F05F05460068BD
:100A700000244669D0F804908768D0F80CB0D0F80C
:100A800010A0D0F81880F10748D0F90714D0012140
:100A90008160B80703D5284600F0F1F90CE078072B
:100AA00002D54FF4006407E0380702D54FF48054B4
:100AB00002E0284600F0E2F9F80516D529684FF45F
:100AC00080708860B80503D5284600F0DAF90CE09C
:100AD000780502D544F4005407E0380502D544F403
:100AE000804402E0284600F0CBF9F80316D52968C7
:100AF0004FF480308860B80303D5284600F0C3F96E
:100B00000CE0780302D544F4004407E0380302D532
:100B100044F4803402E0284600F0B4F9300707D5E9
:100B20005FEACB6004D52968102044F40074C860E3
:100B300070074FF0080707D55FEA0B7004D52868E7
:100B4000C760284600F068F9B00706D52868C06875
:100B5000800702D0284600F060F9700607D55FEAEA
:100B6000CA6004D52968102044F480640861B00686
:100B700007D55FEA0A7004D528680761284600F0A7
:100B80004DF9F00606D528680069800702D028468E
:100B900000F045F9B00308D55FEAC96005D52968BA
:100BA00010204860284600F03BF9F00307D55FEAC3
:100BB000097004D528684760284600F065F93004BC
:100BC00046D55FEA497040D5F00504D55FEAC870A4
:100BD00001D044F00104B00504D55FEA887001D566
:100BE00044F00204700504D55FEA487001D544F072
:100BF0000404300529D518F0700F26D008F07000D5
:100C0000402815D006DC102809D020280AD030282A
:100C100016D10AE050280ED0602811D10EE044F021
:100C200008040DE044F010040AE044F0200407E05A
:100C300044F0400404E044F0800401E044F4807493
:100C40002868816921F07001816129680420486069
:100C5000002C05D0686A204368622846FFF7EDFE45
:100C6000BDE8F09F70B5040003D094F8200010B1E7
:100C700004E0012070BD204600F090F82068016873
:100C800021F00201016000F01FFB0546052604E08B
:100C900000F01AFB401B0A2811D820684068800722
:100CA000F6D42068016841F00101016000F00CFBFE
:100CB00005460BE000F008FB401B0A2806D9606AD5
:100CC00040F40030606284F82060D2E72068406819
:100CD000C007EFD0207E0128206801683DD021F0B8
:100CE00080010160607E01282068016838D021F011
:100CF00040010160A07E01282068016833D021F006
:100D000020010160E07E0128206801682ED041F0BA
:100D100010010160207F01282068016829D021F09E
:100D200008010160607F01282068016824D021F05B
:100D300004010160D4E902010843D4E9041211431B
:100D400008436168491E08432168C8610020606249
:100D5000012084F82000002070BD41F08001C0E730
:100D600041F04001C5E741F02001CAE721F0100140
:100D7000CFE741F00801D4E741F00401D9E7034689
:100D8000002093F82020012A01D0022A05D11A68F8
:100D900089069268914300D00120704710B586B053
:100DA0000021009101910291039100681749884246
:100DB0002AD11748C16941F00071C161C16901F0D0
:100DC00000710491816941F0040181618069114CD5
:100DD00000F0040004904FF4006000906946204643
:100DE00000F076F9A01400900220019003200390F7
:100DF0006946204600F06CF900221146142000F0EC
:100E0000E9FA142000F0D8FA06B010BD00640040E2
:100E1000001002400008014070477047704770475B
:100E20007047000070B5044690F82000012804D0F7
:100E3000606A40F40020606218E0022084F820001C
:100E40002068016821F00101016000F03DFA0546CB
:100E50000EE000BF00F038FA401B0A2808D9606A8B
:100E600040F400306062052084F82000012070BD4D
:100E700020684068C007EDD1606270BD7047704760
:100E80007047704770477047704700002DE9F05F6A
:100E9000C16B0C6801680B68D0F840C0042202FAEC
:100EA0000CF2494DDFF824A1494E4A4FDFF828B132
:100EB000DFF828E122422CD05A072AD50A68920688
:100EC00003D40A6822F004020A600168A94201D131
:100ED000042219E0514501D1402215E0B14202D16E
:100EE0004FF4806210E0B94202D14FF480420BE02F
:100EF000594502D14FF4802206E0714502D14FF4EA
:100F0000800201E04FF080622F4908394A60C16ACF
:100F10003BE04FF0020808FA0CF818EA040F4FF013
:100F200000094FF0010235D05FEA837832D50B68B3
:100F30009B0605D40B6823F00A030B6080F8212080
:100F40000168A94201D1022219E0514501D12022B4
:100F500015E0B14202D14FF4007210E0B94202D163
:100F60004FF400520BE0594502D14FF4003206E035
:100F7000714502D14FF4001201E04FF000721249A6
:100F800008394A6080F82090816A00291AD0BDE8AB
:100F9000F05F0847082505FA0CF5254212D01B071B
:100FA00010D50B6823F00E030B6090F84010C36B54
:100FB00002FA01F15960826380F8212080F82090C4
:100FC000016BE2E7BDE8F09F080002401C00024010
:100FD0003000024044000240580002406C000240D1
:100FE00030B528B308C8134914221944B1FBF2F1F3
:100FF0008900C16310498163022141771A6843F671
:10100000F0718A43D0E900142143D0E902452C4312
:1010100021430469214344692143846921431143E5
:10102000196000214163012242770177084630BDF3
:10103000012030BDF8FFFDBF0000024070B504463E
:1010400090F82000002501280CD0012084F8200011
:1010500094F821600020012E06D084F8200002259B
:10106000284670BD022070BD022684F82160A0636E
:101070002068066826F0010606602046FFF730F972
:10108000E06A00282068016802D041F00E0106E005
:1010900021F0040101602068016841F00A0101604B
:1010A0002068016841F001010160D9E770B504468C
:1010B00000F00AF90546601C02D004480078044498
:1010C00000F002F9401BA042FAD370BD10000020CE
:1010D0002DE9F84FDFF8B891002409F1040A0AF16C
:1010E000040B23460F270BF1040EC9E00125A54090
:1010F0002A40AA427DD1674ED1F804C0ACEB060865
:10110000B44532D014DCBCF1030F3AD009DCBCF199
:10111000000F2AD0BCF1010F1CD0BCF1020F31D15D
:101120001DE0BCF1110F17D0BCF1120F2AD119E04C
:10113000B8F5881F19D006DCB8F5803F15D0B8F592
:10114000801F1FD111E0B8F5001F0ED0B8F5041FA5
:1011500018D10AE0CB6815E0CB681B1D12E0CB6804
:1011600008330FE0CB680C330CE08B682BB1012BFC
:101170004FF0080303D0456104E0042302E0056159
:1011800000E00023FF2A01D8064601E000F1040632
:101190004FEA840501D9A5F12005D6F8008007FAA9
:1011A00005FC28EA0C0803FA05F548EA0508C6F824
:1011B00000804D68ED0062D5374DAE6946F00106FE
:1011C000AE61AD6924F0030605F001050095334DCD
:1011D00006EB050CDCF80850A607360F07FA06F8F0
:1011E00025EA0805DFF8B880404503D14FF0000834
:1011F00017E044E0DFF8AC80404502D14FF0010831
:101200000FE0DFF8A480404502D14FF0020808E06B
:10121000DFF89880404502D14FF0030801E04FF01D
:10122000040808FA06F848EA0508CCF808804D6872
:10123000D9F80060ED034D4601D5164300E0964312
:101240002E604D68DAF80060AD03554601D51643AF
:1012500000E096432E604D68DBF80060ED025D46CD
:1012600001D5164300E096432E604D68DEF800601D
:10127000AD02754601D5164300E096432E60641C0E
:101280000D682A46E5407FF431AFBDE8F88F0000D5
:101290000004014000001110001002400000014055
:1012A00000080140000C0140001001400014014002
:1012B000C2680A4201D041617047016170470AB1BA
:1012C000016170470904FBE701488068704700002E
:1012D0001000002002488168027811448160704744
:1012E00010000020074810B5016841F010010160AE
:1012F000032000F08FF8002000F006F800F03EF820
:10130000002010BD0020024000B5014687B0002239
:10131000192000F05FF8192000F04EF81348816999
:1013200041F400618161806905A900F400600690C4
:10133000684600F08DF900F0ABF90D490D4AB0FB9D
:10134000F1F10D48491E0260416040F2E732002190
:10135000C0E90321816000F094FB10B1012007B0C7
:1013600000BD054800F0CEFBF9E700000010024088
:1013700040420F00002C01405C0100200C4808B5E1
:10138000816941F001018161816901F001010091F0
:10139000C16941F08051C161C06900F08050009086
:1013A0000448416821F0E06141F08061416008BD7E
:1013B0000010024000000140002809DB00F01F027D
:1013C000012191404009800000F1E020C0F80011A7
:1013D00070470000F0B40E4B1B680C46C3F30223A9
:1013E000C3F10705042D00D90425191D072901D2D1
:1013F000002300E0DB1E012606FA05F1491E21400C
:1014000099409E40761E16403143F0BC00F06FBEFE
:101410000CED00E0064900F0070208684FF6FF03F4
:10142000184040EA0220034A104308607047000059
:101430000CED00E00000FA052DE9F84305460078C0
:10144000354CC00754D0E0690026C00008D4E069DC
:1014500040F08050E061E069012600F0805000908B
:101460002E480168C90512D40168804641F4807194
:101470000160FFF729FF074605E000BFFFF724FFE3
:10148000C01B642823D8D8F80000C005F6D5206A10
:1014900010F4407021D0A98801F4407181421CD021
:1014A000206A1F49012220F440700A6000220A606D
:1014B0002062C00711D0FFF707FF074641F28838C6
:1014C00008E000BFFFF700FFC11B414502D9032020
:1014D000BDE8F883206A8007F4D5206A696820F4A3
:1014E0004070084320621EB1E06920F08050E06146
:1014F0002878800705D56068A96820F44040084333
:1015000060602878C00605D56068E96820F480002E
:10151000084360600020DBE70010024000700040DC
:10152000400442422DE9F0470F46050061D0434E8A
:10153000306800F00700B84209D2306820F0070098
:1015400038433060306800F00700B84251D1286855
:101550003B4C810712D5400703D5606840F4E0603A
:1015600060602878000703D5606840F460506060D0
:101570006068A96820F0F000084360602878C00720
:1015800028D06868012810D02168022810D0890767
:1015900000292EDA616821F0030101436160FFF741
:1015A00093FE804641F288390DE021688903EFE718
:1015B0008901EDE7FFF788FEA0EB0801494502D954
:1015C0000320BDE8F0876068696800F00C00B0EBAC
:1015D000810FEFD1306800F00700B8420BD93068B6
:1015E00020F0070038433060306800F00700B84250
:1015F00001D00120E5E72878400705D56068E96853
:1016000020F4E060084360602878000706D5606831
:10161000296920F4605040EAC100606000F048F899
:101620006168084AC1F30311515CC840064908606B
:1016300006480068FFF768FE0020C2E7002002406D
:1016400000100240382200081C0000201400002076
:101650000F2202600C4A536803F00303436053688F
:1016600003F0F0038360536803F4E063C3605268DF
:101670004FF4E06303EAD20202610448006800F01C
:101680000700086070470000001002400020024080
:101690000448054900684968044AC1F3C221515C05
:1016A000C84070471C00002000100240482200087B
:1016B00012A185B00FC98DE80F0014A0144A00686C
:1016C00004905168134801F00C03042B10D0082B30
:1016D0000ED1C1F38343C9031DF803000AD5516835
:1016E00004AAC1F34041515C0A4A5043B0FBF1F0F7
:1016F00005B0704708494843FAE7000002030405B3
:10170000060708090A0B0C0D0E0F1010010200004D
:101710000010024000127A0000093D002DE9F84F48
:10172000040070D02078C04DC00749D06868C0F36D
:101730008100012807D06868C0F38100022809D120
:101740006868C00306D52868800339D5606800281A
:10175000E7D035E06068B0F5803F0BD010B1B0F550
:10176000A02F11D0286820F480302860286820F449
:10177000802002E0286840F480302860606890B1E2
:10178000FFF7A2FD06460AE0286840F480202860A2
:10179000F0E700BFFFF798FD801B642873D8286826
:1017A0008003F7D50CE0FFF78FFD064605E000BF8C
:1017B000FFF78AFD801B6428F0D828688003F7D4DF
:1017C00020789A4E80074FF001094FF0000839D574
:1017D000686810F00C0F07D06868C0F38100022819
:1017E00009D16868C00306D42868800714D5206929
:1017F000012808D110E02069B0B1C6F80090FFF7C9
:1018000063FD074605E00AE1FFF75EFDC01B022805
:10181000C4D828688007F7D52868616920F0F800E7
:1018200040EAC10028600DE0C6F80080FFF74CFDDB
:10183000074604E0FFF748FDC01B022823D82868AC
:101840008007F7D4207800072CD57948A169D9B151
:10185000C0F80090FFF738FD074604E0FFF734FDBD
:10186000C01B02280FD8686A8007F7D571484FF46B
:10187000FA510068B0FBF1F0009000BF0098411EE3
:101880000091FAD20EE080E0C0F80080FFF71CFD66
:10189000074604E0FFF718FDC01B022875D8686AE8
:1018A0008007F7D42078400760D5E8690027C0009A
:1018B00008D4E86940F08050E861E869012700F049
:1018C000805000905C480168C90513D401688346C4
:1018D00041F480710160FFF7F7FC824606E000BF2B
:1018E000FFF7F2FCA0EB0A0064284ED8DBF80000FA
:1018F000C005F5D5E06801280AD008B1052813D045
:10190000286A20F001002862286A20F0040002E022
:10191000286A40F001002862E06841F2883B98B1F3
:10192000FFF7D2FC82460BE0286A40F004002862F0
:10193000EEE700BFFFF7C8FCA0EB0A0159455AD8F3
:10194000286A8007F6D50CE0FFF7BEFC824605E06A
:10195000FFF7BAFCA0EB0A0159454CD8286A80076A
:10196000F6D41FB1E86920F08050E861E06988B3DF
:101970006968C1F38101022944D00228C6F8608059
:1019800004D0FFF7A1FC044638E034E0FFF79CFCEC
:10199000074604E0FFF798FCC01B02282BD82868F4
:1019A0008001F7D4206AB0F5803F05D16868A1684E
:1019B00020F4003008436860D4E9080108436968EE
:1019C00021F4741108436860C6F86090FFF77CFC4E
:1019D000044606E025E000BFFFF776FC001B022866
:1019E00009D828688001F7D51BE000BFFFF76CFC21
:1019F000001B022802D90320BDE8F88F2868800167
:101A0000F4D40EE00128F7D06868226A00F480312F
:101A1000914204D1616A00F47010884201D0012023
:101A2000EAE70020E8E70000001002400000424220
:101A3000800442421C000020007000407047704744
:101A400070B590F83C20012A19D0012400F83C4FD1
:101A50000222427050F83C3C5A689D6822F07006A1
:101A60000A684968324325F0800529435A6050F8D6
:101A70003C2C9160447000210170084670BD02202A
:101A800070BD10B5040003D094F83D0010B107E01C
:101A9000012010BD002084F83C00204600F00CF826
:101AA000022084F83D00211D206800F0ADFA0120DD
:101AB00084F83D00002010BD08B500680649884242
:101AC00008D10648C16941F00201C161C06900F056
:101AD0000200009008BD0000000400400010024019
:101AE000022180F83D1001688A6802F00702062A88
:101AF00003D00A6842F001020A60012180F83D101B
:101B0000002070470168CA6842F00102CA6000689C
:101B1000816801F00701062903D0016841F0010145
:101B200001600020704770B5044690F83C00012821
:101B300017D0012584F83C50022084F83D0020682D
:101B4000826822F0770222F47F428260086850287F
:101B500030D00DDC20284DD005DC98B310283BD1C7
:101B600048E0022070BD302844D0402834D139E00C
:101B7000602828D0702806D0B0F5805F2CD0B0F552
:101B8000005F29D10AE0CB68D1E90121206800F08B
:101B900071FA2068816841F0770109E0CB68D1E9EA
:101BA0000121206800F066FA2068816841F48041D4
:101BB000816011E0CA684968206800F06DFA502120
:101BC000206807E016E0CA684968206800F075FAE6
:101BD0006021206800F058FA84F83D50002084F815
:101BE0003C0070BDCA684968206800F055FA402181
:101BF0002068EFE7226801461046EBE7704770B5B2
:101C00000446006801694FF00005C943890715D4EF
:101C1000C168C943890711D4E91E016101202077F9
:101C2000206880698007204602D0FFF7E7FF04E0C4
:101C300000F098F8204600F096F8257720680169B2
:101C4000C943490717D4C168C943490713D46FF082
:101C500004010161022020772068806910F4407F30
:101C6000204602D0FFF7CAFF04E000F07BF82046D0
:101C700000F079F8257720680169C943090716D46F
:101C8000C168C943090712D46FF00801016104203B
:101C900020772068C0698007204602D0FFF7AEFF9A
:101CA00004E000F05FF8204600F05DF8257720683A
:101CB0000169C943C90617D4C168C943C90613D409
:101CC0006FF010010161082020772068C06910F4CE
:101CD000407F204602D0FFF791FF04E000F042F879
:101CE000204600F040F8257720680169C943C907FC
:101CF00008D1C168C943C90704D1891E01612046C2
:101D000000F032F820680169C943090609D4C168A6
:101D1000C943090605D46FF0800101612046FFF731
:101D20008DFE20680169C943490609D4C168C943C9
:101D3000490605D46FF040010161204600F01EF80D
:101D400020680169C94389060BD4C168C943890663
:101D500007D46FF0200101612046BDE87040FFF715
:101D60006EBE70BD7047704700680349884201D15C
:101D7000FFF7B0BA70470000002C01407047FEE743
:101D8000FEB5002425480094019423490294016083
:101D90008915816001250573047508260661C9024D
:101DA0004460C161FEF7A8FBCDE900450424694603
:101DB0001A480294FEF7ACFA0095022569461748C6
:101DC0000195FEF7A5FA009503256946134801958C
:101DD000FEF79EFACDE9005469461048FEF798FADE
:101DE0000094052469460D480194FEF791FA009489
:101DF0000624694609480194FEF78AFA00940724EC
:101E0000694606480194FEF783FACDE90046694623
:101E10000248FEF77DFAFEBD0024014020000020AC
:101E20000C480B494FF460220160042141600021FD
:101E30008160C0E903124FF480124261017641765D
:101E400001228276C27601774177FEF70BBF000050
:101E500000640040500000202DE9F04385B00024CC
:101E600021480094019402940394816941F0100187
:101E70008161816901F010010491816941F02001C3
:101E80008161816901F020010491816941F00401BF
:101E900081618069DFF8548000F004004FF4005540
:101EA0000490002229464046FFF709FADFF84090E7
:101EB0006F11002239464846FFF701FA00950226C5
:101EC00001250396CDE9015469464046FFF700F924
:101ED00000970396CDE9015469464846FFF7F8F8A4
:101EE00005B0BDE8F0830000001002400010014082
:101EF0000008014010B586B00024124800940194F7
:101F00000294039404940E49059401604FF47A51AD
:101F1000C0E901140521C0E903148461FFF7B1FD94
:101F20004FF48050009069460648FFF7FCFD2020E2
:101F3000CDE9040404A90348FFF782FD06B010BDF3
:101F40000004004078000020FEE7704770477047AB
:101F5000704730B593B028216846FEF7EAF814219F
:101F60000AA8FEF7E6F8002401200F9410941194BB
:101F7000010412948DE8130004904FF4E010CDE9B1
:101F80000810022507956846FFF7C8FB0F20CDE92A
:101F90000A056802CDE90C4002210AA80E94FFF759
:101FA000C1FAA80311900F950FA8FFF745FA13B0D7
:101FB00030BD00000D48016841F001010160416839
:101FC0000B4A1140416001680A4A114001600168F2
:101FD00021F480210160416821F4FE0141604FF449
:101FE0001F0181600449C00308607047001002406F
:101FF0000000FFF8FFFFF6FE08ED00E00148FFF7E4
:10200000FEBD00005C010020F0B50268164B174CC5
:10201000174D4FF08047984205D0B84203D0A042F8
:1020200001D0A84203D122F070064A683243984298
:1020300005D0B84203D0A04201D0A84203D122F477
:102040004074CA6822434C6922F080022243026035
:102050008A68C2620A688262984201D10969016392
:1020600001214161F0BD0000002C0140000400404E
:102070000008004010B5846842EA032224F47F443B
:102080000A432243826010BD826822F070020A4334
:1020900042F007018160704710B5036A046A24F0BA
:1020A00001040462846924F0F00444EA021423F079
:1020B0000A020A438461026210BD10B5036A23F06C
:1020C000100303628369046A23F4704343EA023213
:1020D00024F0A00343EA01118261016210BD0000F7
:1020E0000148FEF7C1BC000050000020FEE70907D0
:1020F000090E002804DB00F1E02080F8001470478E
:1021000000F00F0000F1E02080F8141D704702E09D
:1021100008C8121F08C1002AFAD170477047002072
:1021200001E001C1121F002AFBD1704708B5FFF77B
:10213000D9F8FFF70EFFFFF78FFE3A48416941F0EB
:10214000010141614069002200F001000090114648
:102150000B20FFF73FF90B20FFF72EF9FFF760FE8A
:10216000FFF70EFEFFF7C6FE2F48FFF7B9FCFEF79C
:102170009DF82D485838FEF79FFA2B482838FEF76F
:1021800051FE294808214030284C0161042181601A
:10219000216841600021C16000F1400108229838A7
:1021A000FEF7EAFA204D224FDFF888B004F1080864
:1021B0004FF4807680354FF400694FF4005A0020C8
:1021C0004FEA080135F8202012090A54401C08285B
:1021D000F8DB15482838FEF731FC80B1134B124963
:1021E0001B1D40311A1DA1F16800FEF74BFB06E0F4
:1021F00031463846FFF75CF86420FEF757FF0A487F
:1022000061682838FEF7BBFD0028F1D1A868484571
:1022100001D3002200E0012251465846FFF74FF853
:10222000CDE70000001002407800002000000020F0
:102230000008014000100140000000000000000004
:10224000010203040607080900000000010203045C
:102250007022000800000020200000000E2100086D
:102260009022000820000020800500001E210008A8
:1022700079000000000000000000000000000000E5
:102280000100000010000000000000000024F40025
:04000005080000ED02
:00000001FF
